{
  "contractName": "Crowdsale",
  "abi": [
    {
      "inputs": [
        {
          "name": "_startTime",
          "type": "uint256"
        },
        {
          "name": "_endTime",
          "type": "uint256"
        },
        {
          "name": "_initialSupply",
          "type": "uint256"
        },
        {
          "name": "_tokensPerWei",
          "type": "uint256"
        }
      ],
      "payable": false,
      "stateMutability": "nonpayable",
      "type": "constructor"
    },
    {
      "constant": false,
      "inputs": [
        {
          "name": "newAmount",
          "type": "uint256"
        }
      ],
      "name": "mintTokens",
      "outputs": [],
      "payable": false,
      "stateMutability": "nonpayable",
      "type": "function"
    },
    {
      "constant": false,
      "inputs": [
        {
          "name": "burnAmount",
          "type": "uint256"
        }
      ],
      "name": "burnTokens",
      "outputs": [],
      "payable": false,
      "stateMutability": "nonpayable",
      "type": "function"
    }
  ],
  "bytecode": "0x608060405234801561001057600080fd5b506040516080806102d88339810180604052608081101561003057600080fd5b8101908080519060200190929190805190602001909291908051906020019092919080519060200190929190505050336000806101000a81548173ffffffffffffffffffffffffffffffffffffffff021916908373ffffffffffffffffffffffffffffffffffffffff160217905550836001819055508260028190555081600381905550806004819055505050505061020a806100ce6000396000f3fe60806040526004361061004c576000357c0100000000000000000000000000000000000000000000000000000000900463ffffffff1680636d1b229d1461005157806397304ced1461008c575b600080fd5b34801561005d57600080fd5b5061008a6004803603602081101561007457600080fd5b81019080803590602001909291905050506100c7565b005b34801561009857600080fd5b506100c5600480360360208110156100af57600080fd5b8101908080359060200190929190505050610137565b005b6000809054906101000a900473ffffffffffffffffffffffffffffffffffffffff1673ffffffffffffffffffffffffffffffffffffffff163373ffffffffffffffffffffffffffffffffffffffff1614151561012257600080fd5b61012e600354826101a7565b60038190555050565b6000809054906101000a900473ffffffffffffffffffffffffffffffffffffffff1673ffffffffffffffffffffffffffffffffffffffff163373ffffffffffffffffffffffffffffffffffffffff1614151561019257600080fd5b61019e600354826101c0565b60038190555050565b60008282111515156101b557fe5b818303905092915050565b60008082840190508381101515156101d457fe5b809150509291505056fea165627a7a7230582013338f9db4bebbb0a0c505d0a7f719f0fb4722b766bc547df5b8d9a71658be040029",
  "source": "pragma solidity ^0.5.0;\n\nimport './Queue.sol';\nimport './Token.sol';\n\nimport './utils/SafeMath.sol';\n\n/**\n * @title Crowdsale\n * @dev Contract that deploys `Token.sol`\n * Is timelocked, manages buyer queue, updates balances on `Token.sol`\n */\n\ncontract Crowdsale {\n  address payable owner;\n  uint256 startTime;\n  uint256 endTime;\n  uint256 totalSupply;\n  uint256 tokensPerWei;\n\n  constructor (\n    uint256 _startTime,\n    uint256 _endTime,\n    uint256 _initialSupply,\n    uint256 _tokensPerWei\n  ) public {\n    owner = msg.sender;\n    startTime = _startTime;\n    endTime = _endTime;\n    totalSupply = _initialSupply;\n    tokensPerWei = _tokensPerWei;\n\n  }\n\n  modifier ownerOnly() {\n    require(msg.sender == owner);\n    _;\n  }\n\n  modifier saleActive() {\n    require(now >= startTime && now <= endTime);\n    _;\n  }\n\n  function mintTokens(uint256 newAmount) public ownerOnly() {\n    totalSupply = SafeMath.add(totalSupply, newAmount);\n  }\n\n  function burnTokens(uint256 burnAmount) public ownerOnly() {\n    totalSupply = SafeMath.sub(totalSupply, burnAmount);\n  }\n\n\n}\n",
  "sourcePath": "/Users/aashishrathi/Projects/BlockchainLearning/sp18-midterm-p1/contracts/Crowdsale.sol",
  "compiler": {
    "name": "solc",
    "version": "0.5.0+commit.1d4f565a.Emscripten.clang"
  },
  "schemaVersion": "3.0.6",
  "updatedAt": "2019-07-09T16:01:26.400Z",
  "devdoc": {
    "details": "Contract that deploys `Token.sol` Is timelocked, manages buyer queue, updates balances on `Token.sol`",
    "methods": {},
    "title": "Crowdsale"
  },
  "userdoc": {
    "methods": {}
  }
}