{
  "contractName": "Queue",
  "abi": [
    {
      "constant": true,
      "inputs": [
        {
          "name": "_timeLimit",
          "type": "uint256"
        }
      ],
      "name": "qsize",
      "outputs": [
        {
          "name": "",
          "type": "uint8"
        }
      ],
      "payable": false,
      "stateMutability": "nonpayable",
      "type": "constructor"
    },
    {
      "constant": true,
      "inputs": [
        {
          "indexed": false,
          "name": "ejectedBuyerAddress",
          "type": "address"
        }
      ],
      "name": "TimeUp",
      "outputs": [
        {
          "name": "",
          "type": "bool"
        }
      ],
      "payable": false,
      "stateMutability": "view",
      "type": "event",
      "anonymous": false
    },
    {
      "constant": true,
      "inputs": [],
      "name": "qsize",
      "outputs": [
        {
          "name": "",
          "type": "uint8"
        }
      ],
      "payable": false,
      "stateMutability": "view",
      "type": "function"
    },
    {
      "constant": true,
      "inputs": [],
      "name": "empty",
      "outputs": [
        {
          "name": "",
          "type": "bool"
        }
      ],
      "payable": false,
      "stateMutability": "view",
      "type": "function"
    },
    {
      "constant": true,
      "inputs": [],
      "name": "getFirst",
      "outputs": [
        {
          "name": "",
          "type": "address"
        }
      ],
      "payable": false,
      "stateMutability": "view",
      "type": "function"
    },
    {
      "constant": true,
      "inputs": [],
      "name": "checkPlace",
      "outputs": [
        {
          "name": "",
          "type": "uint8"
        }
      ],
      "payable": false,
      "stateMutability": "view",
      "type": "function"
    },
    {
      "constant": false,
      "inputs": [
        {
          "name": "addr",
          "type": "address"
        }
      ],
      "name": "checkTime",
      "outputs": [],
      "payable": false,
      "stateMutability": "nonpayable",
      "type": "function"
    },
    {
      "constant": false,
      "inputs": [],
      "name": "dequeue",
      "outputs": [],
      "payable": false,
      "stateMutability": "nonpayable",
      "type": "function"
    },
    {
      "constant": false,
      "inputs": [
        {
          "name": "addr",
          "type": "address"
        }
      ],
      "name": "enqueue",
      "outputs": [],
      "payable": false,
      "stateMutability": "nonpayable",
      "type": "function"
    }
  ],
  "bytecode": "0x608060405260056000806101000a81548160ff021916908360ff16021790555034801561002b57600080fd5b5060405160208061063d8339810180604052602081101561004b57600080fd5b8101908080519060200190929190505050806001819055506001600360006101000a81548160ff021916908360ff1602179055506000600360016101000a81548160ff021916908360ff16021790555050610592806100ab6000396000f3fe608060405260043610610083576000357c0100000000000000000000000000000000000000000000000000000000900463ffffffff1680631e223143146100885780633e3c9eae146100df5780638f807f6b14610110578063957908d114610161578063ad7d59fc14610178578063e0c6190d146101a9578063f2a75fe4146101c0575b600080fd5b34801561009457600080fd5b5061009d6101ef565b604051808273ffffffffffffffffffffffffffffffffffffffff1673ffffffffffffffffffffffffffffffffffffffff16815260200191505060405180910390f35b3480156100eb57600080fd5b506100f4610242565b604051808260ff1660ff16815260200191505060405180910390f35b34801561011c57600080fd5b5061015f6004803603602081101561013357600080fd5b81019080803573ffffffffffffffffffffffffffffffffffffffff16906020019092919050505061026d565b005b34801561016d57600080fd5b50610176610345565b005b34801561018457600080fd5b5061018d610402565b604051808260ff1660ff16815260200191505060405180910390f35b3480156101b557600080fd5b506101be6104d6565b005b3480156101cc57600080fd5b506101d561051f565b604051808215151515815260200191505060405180910390f35b600060026000600360009054906101000a900460ff1660ff1660ff16815260200190815260200160002060000160009054906101000a900473ffffffffffffffffffffffffffffffffffffffff16905090565b60006001600360009054906101000a900460ff16600360019054906101000a900460ff160301905090565b6001600360018282829054906101000a900460ff160192506101000a81548160ff021916908360ff16021790555060408051908101604052808273ffffffffffffffffffffffffffffffffffffffff1681526020014281525060026000600360019054906101000a900460ff1660ff1660ff16815260200190815260200160002060008201518160000160006101000a81548173ffffffffffffffffffffffffffffffffffffffff021916908373ffffffffffffffffffffffffffffffffffffffff1602179055506020820151816001015590505050565b600360019054906101000a900460ff1660ff16600360009054906101000a900460ff1660ff161115151561037857600080fd5b60026000600360009054906101000a900460ff1660ff1660ff168152602001908152602001600020600080820160006101000a81549073ffffffffffffffffffffffffffffffffffffffff0219169055600182016000905550506001600360008282829054906101000a900460ff160192506101000a81548160ff021916908360ff160217905550565b600080600360009054906101000a900460ff1690505b600360019054906101000a900460ff1660ff168160ff1610156104cd57600260008260ff1660ff16815260200190815260200160002060000160009054906101000a900473ffffffffffffffffffffffffffffffffffffffff1673ffffffffffffffffffffffffffffffffffffffff163373ffffffffffffffffffffffffffffffffffffffff1614156104c2576001600360009054906101000a900460ff168203019150506104d3565b806001019050610418565b50600090505b90565b60015461050e4260026000600360009054906101000a900460ff1660ff1660ff1681526020019081526020016000206001015461054d565b111561051d5761051c610345565b5b565b6000600360009054906101000a900460ff1660ff16600360019054906101000a900460ff1660ff1610905090565b600082821115151561055b57fe5b81830390509291505056fea165627a7a72305820144c3ace3d4519b70dddb583d963ea680a2eb8bb90994fa8986069a75c746b9e0029",
  "source": "pragma solidity ^0.5.0;\n\n/**\n * @title Queue\n * @dev Data structure contract used in `Crowdsale.sol`\n * Allows buyers to line up on a first-in-first-out basis\n * See this example: http://interactivepython.org/courselib/static/pythonds/BasicDS/ImplementingaQueueinPython.html\n */\n\nimport './utils/SafeMath.sol';\n\ncontract Queue {\n\t/* State variables */\n\tuint8 size = 5;\n\tuint256 timeLimit;\n\n\tstruct Buyer {\n\t\taddress addr;\n\t\tuint256 entryTime;\n\t}\n\n\tmapping(uint8 => Buyer) queue;\n\tuint8 first;\n\tuint8 last;\n\n\t/* Add events */\n\tevent TimeUp(address ejectedBuyerAddress);\n\n\t/* Add constructor */\n\tconstructor(uint256 _timeLimit) public {\n\t\ttimeLimit = _timeLimit;\n\t\tfirst = 1;\n\t\tlast = 0;\n\t}\n\n\t/* Returns the number of people waiting in line */\n\tfunction qsize() view public returns(uint8) {\n\t\t//TODO: Unsafe?\n\t\treturn last - first + 1;\n\t}\n\n\t/* Returns whether the queue is empty or not */\n\tfunction empty() view public returns(bool) {\n\t\treturn (last < first);\n\t}\n\n\t/* Returns the address of the person in the front of the queue */\n\tfunction getFirst() view public returns(address) {\n\t\treturn queue[first].addr;\n\t}\n\n\t/* Allows `msg.sender` to check their position in the queue */\n\tfunction checkPlace() view public returns(uint8) {\n\t\tfor(uint8 i = first; i < last; ++i){\n\t\t\tif(msg.sender == queue[i].addr) return (i - first + 1);\n\t\t}\n\t\treturn 0; // for not in queue\n\t}\n\n\t/* Allows anyone to expel the first person in line if their time\n\t * limit is up\n\t */\n\tfunction checkTime() public {\n\t\t// YOUR CODE HERE\n\t\tif(SafeMath.sub(now, queue[first].entryTime) > timeLimit){\n\t\t\tdequeue();\n\t\t}\n\t}\n\n\t/* Removes the first person in line; either when their time is up or when\n\t * they are done with their purchase\n\t */\n\tfunction dequeue() public {\n\t\trequire(first <= last);\n\t\tdelete queue[first];\n\t\tfirst += 1;\n\t}\n\n\t/* Places `addr` in the first empty position in the queue */\n\tfunction enqueue(address addr) public {\n\t\tlast += 1;\n\t\tqueue[last] = Buyer(addr, now);\n\t}\n}\n",
  "sourcePath": "/Users/aashishrathi/Projects/BlockchainLearning/sp18-midterm-p1/contracts/Queue.sol",
  "compiler": {
    "name": "solc",
    "version": "0.5.0+commit.1d4f565a.Emscripten.clang"
  },
  "schemaVersion": "3.0.6",
  "updatedAt": "2019-07-09T16:01:26.429Z",
  "devdoc": {
    "details": "Data structure contract used in `Crowdsale.sol` Allows buyers to line up on a first-in-first-out basis See this example: http://interactivepython.org/courselib/static/pythonds/BasicDS/ImplementingaQueueinPython.html",
    "methods": {},
    "title": "Queue"
  },
  "userdoc": {
    "methods": {}
  }
}