{
  "contractName": "Queue",
  "abi": [
    {
      "constant": true,
      "inputs": [],
      "name": "qsize",
      "outputs": [
        {
          "name": "",
          "type": "uint8"
        }
      ],
      "payable": false,
      "stateMutability": "view",
      "type": "function"
    },
    {
      "constant": true,
      "inputs": [],
      "name": "empty",
      "outputs": [
        {
          "name": "",
          "type": "bool"
        }
      ],
      "payable": false,
      "stateMutability": "view",
      "type": "function"
    },
    {
      "constant": true,
      "inputs": [],
      "name": "getFirst",
      "outputs": [
        {
          "name": "",
          "type": "address"
        }
      ],
      "payable": false,
      "stateMutability": "view",
      "type": "function"
    },
    {
      "constant": true,
      "inputs": [],
      "name": "checkPlace",
      "outputs": [
        {
          "name": "",
          "type": "uint8"
        }
      ],
      "payable": false,
      "stateMutability": "view",
      "type": "function"
    },
    {
      "constant": false,
      "inputs": [],
      "name": "checkTime",
      "outputs": [],
      "payable": false,
      "stateMutability": "nonpayable",
      "type": "function"
    },
    {
      "constant": false,
      "inputs": [],
      "name": "dequeue",
      "outputs": [],
      "payable": false,
      "stateMutability": "nonpayable",
      "type": "function"
    },
    {
      "constant": false,
      "inputs": [
        {
          "name": "addr",
          "type": "address"
        }
      ],
      "name": "enqueue",
      "outputs": [],
      "payable": false,
      "stateMutability": "nonpayable",
      "type": "function"
    }
  ],
  "bytecode": "0x608060405260056000806101000a81548160ff021916908360ff16021790555034801561002b57600080fd5b506102368061003b6000396000f3fe608060405260043610610083576000357c0100000000000000000000000000000000000000000000000000000000900463ffffffff1680631e223143146100885780633e3c9eae146100df5780638f807f6b14610110578063957908d114610161578063ad7d59fc14610178578063e0c6190d146101a9578063f2a75fe4146101c0575b600080fd5b34801561009457600080fd5b5061009d6101ef565b604051808273ffffffffffffffffffffffffffffffffffffffff1673ffffffffffffffffffffffffffffffffffffffff16815260200191505060405180910390f35b3480156100eb57600080fd5b506100f46101f4565b604051808260ff1660ff16815260200191505060405180910390f35b34801561011c57600080fd5b5061015f6004803603602081101561013357600080fd5b81019080803573ffffffffffffffffffffffffffffffffffffffff1690602001909291905050506101f9565b005b34801561016d57600080fd5b506101766101fc565b005b34801561018457600080fd5b5061018d6101fe565b604051808260ff1660ff16815260200191505060405180910390f35b3480156101b557600080fd5b506101be610203565b005b3480156101cc57600080fd5b506101d5610205565b604051808215151515815260200191505060405180910390f35b600090565b600090565b50565b565b600090565b565b60009056fea165627a7a72305820b82b4cf6c7ced8be7a4858929d6c7237e5fc50f604e478856dd888a20e461a230029",
  "source": "pragma solidity ^0.5.0;\n\n/**\n * @title Queue\n * @dev Data structure contract used in `Crowdsale.sol`\n * Allows buyers to line up on a first-in-first-out basis\n * See this example: http://interactivepython.org/courselib/static/pythonds/BasicDS/ImplementingaQueueinPython.html\n */\n\ncontract Queue {\n\t/* State variables */\n\tuint8 size = 5;\n\t// YOUR CODE HERE\n\n\t/* Add events */\n\t// YOUR CODE HERE\n\n\t/* Add constructor */\n\t// YOUR CODE HERE\n\n\t/* Returns the number of people waiting in line */\n\tfunction qsize() view public returns(uint8) {\n\t\t// YOUR CODE HERE\n\t}\n\n\t/* Returns whether the queue is empty or not */\n\tfunction empty() view public returns(bool) {\n\t\t// YOUR CODE HERE\n\t}\n\n\t/* Returns the address of the person in the front of the queue */\n\tfunction getFirst() view public returns(address) {\n\t\t// YOUR CODE HERE\n\t}\n\n\t/* Allows `msg.sender` to check their position in the queue */\n\tfunction checkPlace() view public returns(uint8) {\n\t\t// YOUR CODE HERE\n\t}\n\n\t/* Allows anyone to expel the first person in line if their time\n\t * limit is up\n\t */\n\tfunction checkTime() public {\n\t\t// YOUR CODE HERE\n\t}\n\n\t/* Removes the first person in line; either when their time is up or when\n\t * they are done with their purchase\n\t */\n\tfunction dequeue() public {\n\t\t// YOUR CODE HERE\n\t}\n\n\t/* Places `addr` in the first empty position in the queue */\n\tfunction enqueue(address addr) public {\n\t\t// YOUR CODE HERE\n\t}\n}\n",
  "sourcePath": "/Users/aashishrathi/Projects/BlockchainLearning/sp18-midterm-p1/contracts/Queue.sol",
  "compiler": {
    "name": "solc",
    "version": "0.5.0+commit.1d4f565a.Emscripten.clang"
  },
  "schemaVersion": "3.0.6",
  "updatedAt": "2019-07-09T13:13:08.650Z",
  "devdoc": {
    "details": "Data structure contract used in `Crowdsale.sol` Allows buyers to line up on a first-in-first-out basis See this example: http://interactivepython.org/courselib/static/pythonds/BasicDS/ImplementingaQueueinPython.html",
    "methods": {},
    "title": "Queue"
  },
  "userdoc": {
    "methods": {}
  }
}